{
  "contractName": "Convert",
  "abi": [
    {
      "inputs": [],
      "payable": false,
      "stateMutability": "nonpayable",
      "type": "constructor"
    },
    {
      "anonymous": false,
      "inputs": [
        {
          "indexed": false,
          "name": "convertString",
          "type": "string"
        },
        {
          "indexed": false,
          "name": "convertedString",
          "type": "bytes32"
        }
      ],
      "name": "Converted",
      "type": "event"
    },
    {
      "constant": true,
      "inputs": [],
      "name": "getString",
      "outputs": [
        {
          "name": "",
          "type": "string"
        }
      ],
      "payable": false,
      "stateMutability": "view",
      "type": "function"
    },
    {
      "constant": true,
      "inputs": [],
      "name": "getStringInBytes",
      "outputs": [
        {
          "name": "",
          "type": "bytes32"
        }
      ],
      "payable": false,
      "stateMutability": "view",
      "type": "function"
    }
  ],
  "bytecode": "0x6060604052341561000f57600080fd5b6040805190810160405280600481526020017f7761726d000000000000000000000000000000000000000000000000000000008152506000908051906020019061005a929190610060565b50610105565b828054600181600116156101000203166002900490600052602060002090601f016020900481019282601f106100a157805160ff19168380011785556100cf565b828001600101855582156100cf579182015b828111156100ce5782518255916020019190600101906100b3565b5b5090506100dc91906100e0565b5090565b61010291905b808211156100fe5760008160009055506001016100e6565b5090565b90565b6102e7806101146000396000f30060606040526004361061004c576000357c0100000000000000000000000000000000000000000000000000000000900463ffffffff1680634c2071eb1461005157806389ea642f14610082575b600080fd5b341561005c57600080fd5b610064610110565b60405180826000191660001916815260200191505060405180910390f35b341561008d57600080fd5b6100956101ba565b6040518080602001828103825283818151815260200191508051906020019080838360005b838110156100d55780820151818401526020810190506100ba565b50505050905090810190601f1680156101025780820380516001836020036101000a031916815260200191505b509250505060405180910390f35b60006101b560008054600181600116156101000203166002900480601f0160208091040260200160405190810160405280929190818152602001828054600181600116156101000203166002900480156101ab5780601f10610180576101008083540402835291602001916101ab565b820191906000526020600020905b81548152906001019060200180831161018e57829003601f168201915b5050505050610262565b905090565b6101c2610293565b60008054600181600116156101000203166002900480601f0160208091040260200160405190810160405280929190818152602001828054600181600116156101000203166002900480156102585780601f1061022d57610100808354040283529160200191610258565b820191906000526020600020905b81548152906001019060200180831161023b57829003601f168201915b5050505050905090565b600061026c6102a7565b829050600081511415610285576000600102915061028d565b602083015191505b50919050565b602060405190810160405280600081525090565b6020604051908101604052806000815250905600a165627a7a72305820c61cd5dd06471b04355ce28f7358515a85f422aaa979d60d8fc03b47b4a2d33b0029",
  "source": "pragma solidity ^0.4.18;\n\ncontract Convert {\n  string convertString;\n\n  event Converted(string convertString, bytes32 convertedString);\n\n  function Convert() public {\n    convertString = 'warm';\n  }\n\n  function getString() view public returns (string) {\n    return convertString;\n  }\n\n  function getStringInBytes() view public returns (bytes32) {\n    return stringToBytes32(convertString);\n  }\n\n  function stringToBytes32(string memory source)\n        internal\n        pure\n        returns (bytes32 result)\n    {\n        bytes memory tempEmptyStringTest = bytes(source);\n        if (tempEmptyStringTest.length == 0) {\n            return 0x0;\n        }\n\n        assembly {\n            result := mload(add(source, 32))\n        }\n    }\n}\n",
  "sourcePath": "/Users/shanee/Documents/ganache_tutorials/test_string_to_bytes/contracts/Convert.sol",
  "compiler": {
    "name": "solc",
    "version": "0.4.21+commit.dfe3193c.Emscripten.clang"
  },
  "schemaVersion": "2.0.0",
  "updatedAt": "2018-05-14T23:05:40.502Z"
}